:100000000A128A11FC2FFF1B0D2883137F188317F8
:100010000008840A0319FF0A080000308A00040857
:10002000840A82070034013400340A340034643412
:100030000034E834033410342734413448344D3428
:1000400045345434203443342E342034423449343B
:100050004C34493452340034423432343034303445
:100060003134303434343034323439340034593467
:100070004F344E343A3420342D342D342D34003462
:10008000483449345A343A34203425340034253441
:0400900064340034A0
:10009600F40074080F39F2007408F039F3000614FE
:1000A6007308F10004300310F10CFF3E031D5628BF
:1000B60071080A128A1581270A128A1106150D304F
:1000C600F100F10B642883120313061172080A1259
:1000D6008A1581270A128A1106150D30F100F10BD7
:1000E600722883120313061108007708780403198F
:1000F600A528FB01FB0AF81B8C2801300310F70D1D
:10010600F80DFF3E031D81280130FF007F08FB0725
:100116007E2878087A02031D922877087902031C44
:100126009A287708F9027808031CFA03FA020130C4
:100136000310F80CF70CFF3E031D9B280130FB0251
:10014600031D8C287A08F8007908F7000800F401E6
:10015600F501700871040319E128F601F60AF11B8E
:10016600C02801300310F00DF10DFF3E031DB52828
:100176000130FF007F08F607B22801300310F40DA6
:10018600F50DFF3E031DC12871087302031DCD281E
:1001960070087202031CD6287008F2027108031C4C
:1001A600F303F302741401300310F10CF00CFF3E5C
:1001B600031DD7280130F602031DC0287508F1007B
:1001C6007408F0000800FA01FB017A087507F800C8
:1001D6007608F7000318F70AFA1BF7037708F90001
:1001E600790883120313FF00780884000A128A1123
:1001F60003200A128A11003A031908007A087507C3
:10020600F8007608F7000318F70AFA1BF7037708D1
:10021600F900790883120313FF00780884000A1294
:100226008A1103200A128A110A128A114B200A1215
:100236008A110130FA070318FB0A0030FB07E82889
:10024600F6007603031D422974087F3EF9007908FB
:10025600F50004300310F50CFF3E031D2D2975082B
:10026600F70079080F39F80077080A128A15AE27C1
:100276000A128A1178080A128A15AE270800023077
:100286007606031D08007408BF3EF9007908F500DC
:1002960004300310F50CFF3E031D4C297508F700CA
:1002A60079080F39F80077080A128A15AE270A125C
:1002B6008A1178080A128A15AE27080000300A1239
:1002C6008A1581270A128A111A30F500F830F400CF
:1002D600F40B6B29F50B6B29000003300A128A1503
:1002E600AE270A128A110730F5007D30F400F40BB0
:1002F6007A29F50B7A2903300A128A15AE270A12D3
:100306008A110F30F5004730F400F40B8829F50BFD
:1003160088298D2903300A128A15AE270A128A11F6
:1003260002300A128A15AE270A128A1102300A1200
:100336008A15AE270A128A1108300A128A15AE27C4
:100346000A128A1100300A128A15AE270A128A1179
:100356000C300A128A15AE270A128A1100300A12C8
:100366008A15AE270A128A1106300A128A15AE2796
:10037600080073080319C429720871047004031D68
:10038600D7290030F0000030F1000030F2000800FC
:100396000130FF007F08F30701300310F20CF10C67
:1003A600F00CFF3E031DD029FE3072050319F22919
:1003B600CB290130FF007F08F3070130F00700303A
:1003C60003180130F107003003180130F20701303D
:1003D6000310F20CF10CF00CFF3E031DEB29FF306D
:1003E60072050319052ADC2902307302031C072A49
:1003F6000130F30201300310F00DF10DF20DFF3E56
:10040600031DFE29F11FF72973180F2AFF30F00587
:100416007F30F105FF30F2050310F30C7308F50089
:10042600F601F70110300310F50DF60DF70DFF3E3E
:10043600031D162A7508F0047608F1047708F204FD
:10044600740803190800F21708004A08CE004B0882
:10045600CF004C08D00003104F0D500DD6005608A3
:10046600031D3E2A0030CD000030CC000030CB000A
:100476000030CA0008004A08CE004B08CF004C08DE
:10048600D00017300310D00CCF0CCE0CFF3E031D4E
:10049600452A4E08D100CB17FF30CA05FF30CB05E1
:1004A6000030CC054A08D2004B08D3004C08D400D3
:1004B600D5018E30D602D61F752A5608803A8F3E51
:1004C600031C352A01300310D50CD40CD30CD20CE6
:1004D600FF3E031D662A0130FF007F08D607031979
:1004E600882A652A183056020318352A5608031931
:1004F600882A0130CE000310D20DD30DD40DD50DB0
:10050600CE0B7E2A0130D602792A51080319962A83
:10051600D209D309D409D509D20A0319D30A031972
:10052600D40A0319D50A5508CD005408CC0053083F
:10053600CB005208CA0008005708A9005808AA00AC
:100546005908AB005A08A6005B08A7005C08A8007B
:100556000A128A15E3270A128A112608AF0027080D
:10056600B0002808B1006308A9006408AA0065085D
:10057600AB006008A6006108A7006208A8000A127E
:100586008A15E3270A128A112608AC002708AD004F
:100596002808AE000A128A11A5230A128A112C080D
:1005A600BE002D08BF002E08C0005D08A9005E0829
:1005B600AA005F08AB005A08A6005B08A7005C0803
:1005C600A8000A128A15E3270A128A112608BB0018
:1005D6002708BC002808BD000A128A1119230A122E
:1005E6008A113B08E6003C08E7003D08E80066087B
:1005F600FB006708FC006808FD006008F800610859
:10060600F9006208FA000A128A1108250A128A11EC
:100616007808CA007908CB007A08CC000A128A1139
:1006260028224B08D8004A08D70008003E08C10017
:100636003F08C2004008C3000310420D430DC80026
:100646004808031D2D2B0030BB000030BC000030D5
:10065600BD0008003B08C1003C08C2003D08C300BD
:100666000310420D430DC9004908031D412B0030FC
:10067600BB000030BC000030BD0008000030C500E3
:100686000030C6000030C70089304907C100410864
:10069600C8024008C9003D08FF007F08C90680302F
:1006A600FF007F08C905BF17FF30BE05FF30BF0535
:1006B6000030C005BC17FF30BB05FF30BC0500305D
:1006C600BD051830C40001300310C50DC60DC70D99
:1006D600FF3E031D672B3D084002031D782B3C0897
:1006E6003F02031D782B3B083E02031C852B3B086B
:1006F600BE023C08031C3C0FBF023D08031C3D0A1A
:10070600C002451401300310BE0DBF0DC00DFF3EE3
:10071600031D862B0130C402031D662B4508F0001D
:100726004608F1004708F2004808F3004908F400BB
:100736000A128A11BC217008BB007108BC0072083D
:10074600BD0008002C08B2002D08B3002E08B40026
:100756000310330D340DB5003508031DB92B0030D9
:10076600AC000030AD000030AE0008002F08B2002B
:100776003008B3003108B4000310330D340DBA004D
:100786003A08031DCD2B0030AC000030AD00003020
:10079600AE0008003A087B3EFF007F08B5072E082A
:1007A600BA003108FF007F08BA068030FF007F08D4
:1007B600BA05AD17B017FF30AF05FF30B0050030F2
:1007C600B1050030B6000030B7000030B800073081
:1007D600B9002C1CFC2B2F08B60730080311031890
:1007E600300A031DB707310803110318310A031D28
:1007F600B80701300310AE0CAD0CAC0CFF3E031D68
:10080600FD2B01300310AF0DB00DB10DFF3E031DE2
:10081600052C0130B902031DEC2B0930B9002C1C44
:10082600222C2F08B607300803110318300A031DBF
:10083600B707310803110318310A031DB807013041
:100846000310AE0CAD0CAC0CFF3E031D232C013087
:100856000310B80CB70CB60CFF3E031D2B2C013051
:10086600B902031D122C3608F0003708F1003808CB
:10087600F2003508F3003A08F4000A128A11BC2186
:100886007008AC007108AD007208AE000800AB003D
:100896002130A6000130A007FF30200784000A128D
:1008A6008A110D200A128A11AC002C080319032D97
:1008B60025302C060319692C2B0884002C08831379
:1008C60080000130FF007F08AB074D2CA7010130E7
:1008D600A007FF30200784000A128A110D200A1291
:1008E6008A11AC00003A0319032D643A03197F2CD0
:1008F6000D3A03197F2C4D2C26088400831300081B
:10090600A900840A0008AA000230FF007F08A60793
:10091600AA1F962C0330FF007F08A704A909AA097D
:10092600A90A0319AA0AAC01AC0A2C08A3002307DA
:10093600013E84000A128A110D200A128A11A400AF
:100946000A128A110D200A128A11A50025082A0208
:10095600031DAF2C24082902031CB92C0130FF000B
:100966007F08AC0705302C06031D982C2708033991
:100976000319C62C2B0884002D3083138000013008
:10098600FF007F08AB072C08A800FF30FF007F0898
:10099600A807280A03194D2C0A30F7000030F80082
:1009A6002808A3002307013E84000A128A110D209D
:1009B6000A128A11F0000A128A110D200A128A11EF
:1009C600F1002A08F3002908F2000A128A11AA2067
:1009D6000A128A117108FA007008F9000A128A11BF
:1009E60078200A128A117708303EAC002B08840062
:1009F6002C08831380000130FF007F08AB07C82C4A
:100A06002B0884008313800108007808A000790869
:100A1600A1007A08A2000310210D220DA5007B0873
:100A2600A0007C08A1007D08A2000310210D220D64
:100A3600A400250803192B2D240825020318322D9E
:100A46002408A0002508A00219302002031C322D1C
:100A56007B08F8007C08F9007D08FA0008002408E5
:100A660003190800250824020318412D2508A000B3
:100A76002408A00219302002031808000630A3003B
:100A8600FA1BA317FD1B2317F917FF30F805FF30D4
:100A9600F9050030FA05FC17FF30FB05FF30FC05B1
:100AA6000030FD052408250203187F2D01300310B0
:100AB600FB0DFC0DFD0DFF3E031D5A2D0130A4025A
:100AC6002408250603197A2D0130A30223080739C5
:100AD60003197A2D592D01300310FA0CF90CF80C74
:100AE600FF3E031D6F2D0130FF007F08A507250877
:100AF60024060319A82D6E2D250824020318A82DF7
:100B060001300310F80DF90DFA0DFF3E031D842D7B
:100B16000130A502240825060319A42D0130A302DD
:100B2600230807390319A42D832D01300310FD0C6A
:100B3600FC0CFB0CFF3E031D992D0130FF007F08C6
:100B4600A40725082406031D982DA31FBA2DFF30E0
:100B5600F806FF30F906FF30FA060130F8070030D4
:100B660003180130F907003003180130FA07231F74
:100B7600CC2DFF30FB06FF30FC06FF30FD060130B2
:100B8600FB07003003180130FC0700300318013062
:100B9600FD07A3017808FB07790803110318790AF2
:100BA600031DFC077A08031103187A0A031DFD07C3
:100BB600FD1FEF2DFF30FB06FF30FC06FF30FD0664
:100BC6000130FB07003003180130FC070030031822
:100BD6000130FD07A301A30A7B08F0007C08F100A1
:100BE6007D08F2002508F3002308F4000A128A1192
:100BF600BC217008F8007108F9007208FA000800B4
:100C060049308316AF009D30B0003B30B100003054
:100C1600B2000030B3000030B400B501B601B70130
:100C2600B801FF308500C030860087018801831235
:100C36008601870188010A128A1161210A128A1126
:100C46001F1483161F109F101F119F119F178316C5
:100C560035083604031D6B2E0230F40001300A12EB
:100C66008A1123210A128A110B30F5008030F60012
:100C76000A128A11E6200A128A110430F4000230A0
:100C86000A128A1123210A128A111A30F5008030BD
:100C9600F6000A128A11E6200A128A11103083120F
:100CA6000313EB003930EA000D30E900E90B592E49
:100CB600EA0B592EEB0B592E0A128A1576270A12C1
:100CC6008A1101308316B5070318B60A0030B60735
:100CD60083129F121F129F111F151F19702E1E08B7
:100CE600E900EA016908EA00E90183161E08831291
:100CF6006907F8000030031801306A07F9000A1284
:100D06008A15C6270A128A1178088316B900790847
:100D1600BA007A08BB002F088312AC00831630088D
:100D26008312AD00831631088312AE00831639088C
:100D36008312AF0083163A088312B00083163B086D
:100D46008312B1000A128A11A5230A128A112C08ED
:100D56008316B20083122D088316B30083122E0861
:100D66008316B4000530F40001300A128A112321DB
:100D76000A128A11831632088312D70083163308A3
:100D86008312D800831634088312D9000030DA00A3
:100D96000030DB000030DC00CD30DD009C30DE00B2
:100DA6004030DF000030E0000030E1000030E200BB
:100DB6000030E300C830E4004230E5000A128A1130
:100DC6009F220A128A1158088316BD0083125708FB
:100DD6008316BC003D08803AFF0080307F02031D69
:100DE600F62E01303C020318022F83160313BC01B2
:100DF600BD010030B9000030BA000030BB0035300C
:100E060083120313A00083163D088312A2008316E3
:100E16003C088312A100A0300A128A114A240A1241
:100E26008A112E30F5008030F6000A128A11E6206B
:100E36000A128A11A030F5000030F6000A128A1153
:100E4600E6200A128A110F309700053092009101B0
:100E5600FF30831692008312061F352F061B312F93
:100E660001303A2F861F3E2F861B372F02308316FE
:100E7600B7000030B80083163D08803AFF00803086
:100E86007F02031D482F01303C02031CB72F831637
:100E9600031337033804031D802F83128715871623
:100EA60007120713831639088312CA0083163A08F5
:100EB6008312CB0083163B088312CC000A128A11D8
:100EC60028220A128A114B08D8004A08D7000A12AB
:100ED6008A1597270A128A110530F40002300A1281
:100EE6008A1123210A128A112530F5008030F60076
:100EF6000A128A11E6200A128A1102308316370670
:100F06003804031D2A2E8312871187120716071726
:100F1600831639088312CA0083163A088312CB0057
:100F260083163B088312CC000A128A1128220A1261
:100F36008A114B08D8004A08D7000A128A15972743
:100F46000A128A110530F40002300A128A1123218E
:100F56000A128A112530F5008030F6000A128A112D
:100F6600E6200A128A112A2E0A128A1576270A12F2
:100F76008A1187118712071207133530A0008316CE
:100F86003D088312A20083163C088312A100A030FC
:100F96000A128A114A240A128A110530F400013015
:100FA6000A128A1123210A128A112E30F500803086
:100FB600F6000A128A11E6200A128A11A030F500FC
:100FC6000030F6000A128A11E6200A128A1105304C
:100FD600F40002300A128A1123210A128A112530DE
:100FE600F5008030F6000A128A11E6200A128A11EC
:0A0FF6002A2E83010A128A11032E2D
:101EEC0000300A128A15AE270A128A1501300A121E
:101EFC008A15AE270800F000701C862F0816872F55
:101F0C000812F01C8B2F88168C2F8812701D902FA6
:101F1C000817912F0813F01D952F881708008813A8
:101F2C0008009712571C9E2F831203131716A12F0C
:101F3C008312031317125808DA005708D9005A0DE8
:101F4C00DA0CD90C5A0DDA0CD90C5908950008008A
:101F5C00F30083120313061073080A128A158127E3
:101F6C000A128A1506150630F2003030F100F10B1A
:101F7C00BD2FF20BBD2F00008312031306110800B6
:101F8C00FB01F91FD02FF809F909F80A0319F90A0E
:101F9C00FB01FB0A7808F0007908F100F2018E30A1
:101FAC00F3007B08F4000A128A11BC217008F800B7
:101FBC007108F9007208FA000800280827042604A2
:101FCC000319EA2F8030A8062908F8002A08F9001E
:101FDC002B08FA002608FB002708FC002808FD0047
:101FEC000A128A1108257808A6007908A7007A0831
:041FFC00A800080031
:02400E00F93F78
:00000001FF
